{
  "_format": "hh-sol-artifact-1",
  "contractName": "Voting",
  "sourceName": "contracts/Voting.sol",
  "abi": [
    {
      "inputs": [
        {
          "internalType": "string[]",
          "name": "proposalNames",
          "type": "string[]"
        }
      ],
      "stateMutability": "nonpayable",
      "type": "constructor"
    },
    {
      "anonymous": false,
      "inputs": [
        {
          "indexed": true,
          "internalType": "address",
          "name": "voter",
          "type": "address"
        },
        {
          "indexed": false,
          "internalType": "uint256",
          "name": "proposalId",
          "type": "uint256"
        }
      ],
      "name": "VoteCast",
      "type": "event"
    },
    {
      "inputs": [
        {
          "internalType": "address",
          "name": "",
          "type": "address"
        }
      ],
      "name": "hasVoted",
      "outputs": [
        {
          "internalType": "bool",
          "name": "",
          "type": "bool"
        }
      ],
      "stateMutability": "view",
      "type": "function"
    },
    {
      "inputs": [
        {
          "internalType": "uint256",
          "name": "",
          "type": "uint256"
        }
      ],
      "name": "proposals",
      "outputs": [
        {
          "internalType": "string",
          "name": "name",
          "type": "string"
        },
        {
          "internalType": "uint256",
          "name": "voteCount",
          "type": "uint256"
        }
      ],
      "stateMutability": "view",
      "type": "function"
    },
    {
      "inputs": [
        {
          "internalType": "uint256",
          "name": "proposalId",
          "type": "uint256"
        }
      ],
      "name": "vote",
      "outputs": [],
      "stateMutability": "nonpayable",
      "type": "function"
    },
    {
      "inputs": [],
      "name": "winnerName",
      "outputs": [
        {
          "internalType": "string",
          "name": "winnerName_",
          "type": "string"
        }
      ],
      "stateMutability": "view",
      "type": "function"
    },
    {
      "inputs": [],
      "name": "winningProposal",
      "outputs": [
        {
          "internalType": "uint256",
          "name": "winningProposalId",
          "type": "uint256"
        }
      ],
      "stateMutability": "view",
      "type": "function"
    }
  ],
  "bytecode": "0x60806040523480156200001157600080fd5b5060405162000e8338038062000e838339818101604052810190620000379190620002c3565b60005b81518110156200010757600060405180604001604052808484815181106200008b577f4e487b7100000000000000000000000000000000000000000000000000000000600052603260045260246000fd5b60200260200101518152602001600081525090806001815401808255809150506001900390600052602060002090600202016000909190919091506000820151816000019080519060200190620000e49291906200010f565b506020820151816001015550508080620000fe9062000414565b9150506200003a565b5050620004ef565b8280546200011d90620003de565b90600052602060002090601f0160209004810192826200014157600085556200018d565b82601f106200015c57805160ff19168380011785556200018d565b828001600101855582156200018d579182015b828111156200018c5782518255916020019190600101906200016f565b5b5090506200019c9190620001a0565b5090565b5b80821115620001bb576000816000905550600101620001a1565b5090565b6000620001d6620001d0846200033c565b62000308565b9050808382526020820190508260005b858110156200021a5781518501620001ff888262000296565b845260208401935060208301925050600181019050620001e6565b5050509392505050565b60006200023b62000235846200036b565b62000308565b9050828152602081018484840111156200025457600080fd5b62000261848285620003a8565b509392505050565b600082601f8301126200027b57600080fd5b81516200028d848260208601620001bf565b91505092915050565b600082601f830112620002a857600080fd5b8151620002ba84826020860162000224565b91505092915050565b600060208284031215620002d657600080fd5b600082015167ffffffffffffffff811115620002f157600080fd5b620002ff8482850162000269565b91505092915050565b6000604051905081810181811067ffffffffffffffff82111715620003325762000331620004c0565b5b8060405250919050565b600067ffffffffffffffff8211156200035a5762000359620004c0565b5b602082029050602081019050919050565b600067ffffffffffffffff821115620003895762000388620004c0565b5b601f19601f8301169050602081019050919050565b6000819050919050565b60005b83811015620003c8578082015181840152602081019050620003ab565b83811115620003d8576000848401525b50505050565b60006002820490506001821680620003f757607f821691505b602082108114156200040e576200040d62000491565b5b50919050565b600062000421826200039e565b91507fffffffffffffffffffffffffffffffffffffffffffffffffffffffffffffffff82141562000457576200045662000462565b5b600182019050919050565b7f4e487b7100000000000000000000000000000000000000000000000000000000600052601160045260246000fd5b7f4e487b7100000000000000000000000000000000000000000000000000000000600052602260045260246000fd5b7f4e487b7100000000000000000000000000000000000000000000000000000000600052604160045260246000fd5b61098480620004ff6000396000f3fe608060405234801561001057600080fd5b50600436106100575760003560e01c80630121b93f1461005c578063013cf08b1461007857806309eef43e146100a9578063609ff1bd146100d9578063e2ba53f0146100f7575b600080fd5b610076600480360381019061007191906105d7565b610115565b005b610092600480360381019061008d91906105d7565b6102f2565b6040516100a0929190610714565b60405180910390f35b6100c360048036038101906100be91906105ae565b6103ae565b6040516100d091906106d7565b60405180910390f35b6100e16103ce565b6040516100ee9190610784565b60405180910390f35b6100ff6104a2565b60405161010c91906106f2565b60405180910390f35b600160003373ffffffffffffffffffffffffffffffffffffffff1673ffffffffffffffffffffffffffffffffffffffff16815260200190815260200160002060009054906101000a900460ff16156101a2576040517f08c379a000000000000000000000000000000000000000000000000000000000815260040161019990610744565b60405180910390fd5b60008054905081106101e9576040517f08c379a00000000000000000000000000000000000000000000000000000000081526004016101e090610764565b60405180910390fd5b60008181548110610223577f4e487b7100000000000000000000000000000000000000000000000000000000600052603260045260246000fd5b9060005260206000209060020201600101600081548092919061024590610868565b919050555060018060003373ffffffffffffffffffffffffffffffffffffffff1673ffffffffffffffffffffffffffffffffffffffff16815260200190815260200160002060006101000a81548160ff0219169083151502179055503373ffffffffffffffffffffffffffffffffffffffff167fa36cc2bebb74db33e9f88110a07ef56e1b31b24b4c4f51b54b1664266e29f45b826040516102e79190610784565b60405180910390a250565b6000818154811061030257600080fd5b906000526020600020906002020160009150905080600001805461032590610836565b80601f016020809104026020016040519081016040528092919081815260200182805461035190610836565b801561039e5780601f106103735761010080835404028352916020019161039e565b820191906000526020600020905b81548152906001019060200180831161038157829003601f168201915b5050505050908060010154905082565b60016020528060005260406000206000915054906101000a900460ff1681565b6000806000905060005b60008054905081101561049d578160008281548110610420577f4e487b7100000000000000000000000000000000000000000000000000000000600052603260045260246000fd5b906000526020600020906002020160010154111561048a5760008181548110610472577f4e487b7100000000000000000000000000000000000000000000000000000000600052603260045260246000fd5b90600052602060002090600202016001015491508092505b808061049590610868565b9150506103d8565b505090565b606060006104ae6103ce565b815481106104e5577f4e487b7100000000000000000000000000000000000000000000000000000000600052603260045260246000fd5b9060005260206000209060020201600001805461050190610836565b80601f016020809104026020016040519081016040528092919081815260200182805461052d90610836565b801561057a5780601f1061054f5761010080835404028352916020019161057a565b820191906000526020600020905b81548152906001019060200180831161055d57829003601f168201915b5050505050905090565b60008135905061059381610920565b92915050565b6000813590506105a881610937565b92915050565b6000602082840312156105c057600080fd5b60006105ce84828501610584565b91505092915050565b6000602082840312156105e957600080fd5b60006105f784828501610599565b91505092915050565b610609816107cd565b82525050565b600061061a8261079f565b61062481856107aa565b9350610634818560208601610803565b61063d8161090f565b840191505092915050565b6000610655600d836107aa565b91507f416c726561647920766f746564000000000000000000000000000000000000006000830152602082019050919050565b60006106956010836107aa565b91507f496e76616c69642070726f706f73616c000000000000000000000000000000006000830152602082019050919050565b6106d1816107f9565b82525050565b60006020820190506106ec6000830184610600565b92915050565b6000602082019050818103600083015261070c818461060f565b905092915050565b6000604082019050818103600083015261072e818561060f565b905061073d60208301846106c8565b9392505050565b6000602082019050818103600083015261075d81610648565b9050919050565b6000602082019050818103600083015261077d81610688565b9050919050565b600060208201905061079960008301846106c8565b92915050565b600081519050919050565b600082825260208201905092915050565b60006107c6826107d9565b9050919050565b60008115159050919050565b600073ffffffffffffffffffffffffffffffffffffffff82169050919050565b6000819050919050565b60005b83811015610821578082015181840152602081019050610806565b83811115610830576000848401525b50505050565b6000600282049050600182168061084e57607f821691505b60208210811415610862576108616108e0565b5b50919050565b6000610873826107f9565b91507fffffffffffffffffffffffffffffffffffffffffffffffffffffffffffffffff8214156108a6576108a56108b1565b5b600182019050919050565b7f4e487b7100000000000000000000000000000000000000000000000000000000600052601160045260246000fd5b7f4e487b7100000000000000000000000000000000000000000000000000000000600052602260045260246000fd5b6000601f19601f8301169050919050565b610929816107bb565b811461093457600080fd5b50565b610940816107f9565b811461094b57600080fd5b5056fea2646970667358221220e6027ce925ec10c589644fd83c404fe0650f3ff68d3df305612b26b17d1c8f7064736f6c63430008000033",
  "linkReferences": {},
  "deployedLinkReferences": {}
}